:020000040800F2
:1000000088060020A9060008390200083B02000803
:100010003F020008430200084702000800000000F9
:100020000000000000000000000000004B0200087B
:100030004D020008000000004F02000851020008B5
:10004000C3060008C3060008C3060008C30600086C
:10005000C3060008C306000853020008C3060008D0
:10006000C3060008C306000889020008C30600088A
:10007000C3060008C3060008C3060008C30600083C
:10008000C3060008C3060008C3060008C30600082C
:10009000C3060008C3060008C3060008C30600081C
:1000A000C3060008C3060008C3060008C30600080C
:1000B000C3060008C3060008C3060008C3060008FC
:1000C000C3060008C3060008C3060008C3060008EC
:1000D000C3060008C3060008C3060008C3060008DC
:1000E000C3060008C3060008C3060008C3060008CC
:1000F000C3060008C3060008C3060008C3060008BC
:10010000C3060008C3060008C3060008C3060008AB
:10011000C3060008C3060008C3060008C30600089B
:10012000C3060008C3060008C3060008C30600088B
:10013000C3060008C3060008C3060008C30600087B
:10014000C3060008C3060008C3060008C30600086B
:10015000C3060008C3060008C3060008C30600085B
:10016000C3060008C3060008C3060008C30600084B
:10017000C3060008C3060008C3060008C30600083B
:10018000C3060008C306000800F002F800F03CF8BF
:100190000AA090E8000C82448344AAF10107DA45E2
:1001A00001D100F031F8AFF2090EBAE80F0013F0F8
:1001B000010F18BFFB1A43F0010318471C11000080
:1001C0003C110000103A24BF78C878C1FAD8520711
:1001D00024BF30C830C144BF04680C6070470000C1
:1001E0000023002400250026103A28BF78C1FBD840
:1001F000520728BF30C148BF0B6070471FB501F0E0
:1002000066F81FBD10B510BD01F02BF81146FFF7C1
:10021000F5FF00F008F801F049F803B4FFF7F2FF2A
:1002200003BC01F04DF800BF00F054F900F074F980
:1002300000F00EFA00BFFEE7704700BFFEE700BF08
:10024000FEE700BFFEE700BFFEE77047704770475C
:10025000704710B542F2107000F058F9012000F01C
:1002600027FB68B14FF48061154800F02AFCC0F10B
:100270000100C4B222464FF48061114800F032FC04
:10028000012000F020FB10BD10B542F2107000F00C
:100290003DF9102000F00CFB68B14FF400710848E4
:1002A00000F00FFCC0F10100C4B222464FF400710F
:1002B000034800F017FC102000F005FB10BD000003
:1002C000001402400CB500200190009076480068B0
:1002D00040F480307449086000BF7348006800F43F
:1002E000003000900198401C0190009818B90198C6
:1002F000B0F5A04FF1D16C48006800F4003010B1A7
:100300000120009001E0002000900098012846D1D3
:1003100065484030006840F08050634940310860D3
:100320006248006840F44040604908605E48083018
:1003300000685D49083108600846006840F40040E4
:1003400008600846006840F4A05008605848091F3B
:100350000860081F006840F08070091F086000BF37
:100360005148006800F000700028F9D040F2057094
:10037000504908604C480830006820F003004A49A2
:10038000083108600846006840F00200086000BFBD
:1003900045480830006800F00C000828F8D10CBD72
:1003A00010B54548006840F47000434908603E4875
:1003B000006840F001003C49086000203A490831DB
:1003C0000860394800683D490840374908603C48A2
:1003D000091D0860081F006820F48020091F0860BC
:1003E000002031490C310860FFF76CFF4FF00060CE
:1003F00031498039086010BD70B500200022022309
:1004000000240221284D08352D6805F00C0020B18C
:10041000042806D0082834D107E02A4D2A4E35603A
:1004200033E02A4D284E35602FE01F4D2D1D2D68DD
:10043000C5F380541C4D2D1D2D6805F03F0154B1AE
:10044000224DB5FBF1F5184E361D3668C6F38816F9
:1004500005FB06F209E01B4DB5FBF1F5124E361D0A
:100460003668C6F3881605FB06F20F4D2D1D2D6864
:10047000C5F301456D1C6B00B2FBF3F5124E356000
:1004800003E0104D104E356000BF00BF064D08352B
:100490002D68C5F303150E4E705D0B4D2D68C540DC
:1004A000094E356070BD0000003802400070004009
:1004B00008544007003C024088ED00E0FFFFF6FED4
:1004C000103000240024F4000000002000127A0004
:1004D000040000201CB50121202000F021FD4FF474
:1004E000C060009001208DF8040000208DF8060007
:1004F00003208DF8050001208DF8070069460248A9
:1005000000F070FA1CBD00000014024000E0401E24
:100510000028FCD1704700001CB50121112000F01B
:10052000FFFC1020009000208DF8040003208DF8BF
:10053000050001208DF807006946314800F052FAA5
:100540000120009002208DF8070069462D4800F038
:1005500049FA1CBD10B501212A4800F0A5FA01286E
:100560000BD142F21070FFF7D1FF0121254800F0B6
:100570009BFA012801D1244908700121214800F08B
:1005800093FA40B920480078012804D100201E4980
:100590000870012010BD0020FCE710B5102118489C
:1005A00000F082FA58B942F21070FFF7AFFF102145
:1005B000134800F079FA10B901201449087010218D
:1005C0000F4800F071FA012808D11048007801287E
:1005D00004D100200D490870012010BD0020FCE767
:1005E00010B5FFF7DAFF012801D1022406E0FFF77A
:1005F000B1FF012801D1032400E00024204610BDF2
:1006000000100240000002401500002014000020ED
:1006100008B506208DF8000000208DF801000220AA
:100620008DF8020001208DF80300684600F061F8A3
:100630000A208DF8000001208DF8010002208DF8BD
:10064000020001208DF80300684600F052F808BD52
:100650001CB50121880300F0BDFC0421084600F010
:10066000C4FD0021084600F0C0FD012000900020DC
:100670008DF8040008208DF8050001208DF8060093
:10068000684600F0AFF81020009000208DF80400BC
:100690000C208DF8050001208DF80600684600F05A
:1006A000A1F8FFF7B5FF1CBD09488047094800477E
:1006B000FEE7FEE7FEE7FEE7FEE7FEE7FEE7FEE712
:1006C000FEE7FEE704480549054A064B704700006F
:1006D000A103000889010008880000208806002086
:1006E000880200208802002032490143324A11600A
:1006F000704770B5002100230F22C4781CB32E4C24
:10070000246804F4E064C4F5E064C4F30721C1F193
:100710000404E3B20A4144789C40E1B28478144076
:1007200021430C07210E254C05786155047804F00F
:100730001F050124AC4005786D11AD0005F1E025E1
:10074000C5F8004109E0047804F01F050124AC401D
:100750001B4D0678761145F8264070BD194A0A40AF
:100760000243154B1B1F1A60704739B1124A121D04
:1007700012680243104B1B1D1A6006E00E4A121D40
:10078000126882430C4B1B1D1A607047042808D165
:100790004FF0E021096941F004014FF0E0221161BE
:1007A00007E04FF0E021096921F004014FF0E02259
:1007B000116170470000FA050CED00E000E400E074
:1007C00080E100E080FFFF1F002041490860091D13
:1007D0000860091D0860091D08603E483C49143145
:1007E0000860704700213A498279002A3AD00A46C7
:1007F000126803689A430B461A600A1D1268036860
:100800009A430B1D1A60027911440A6803681A435F
:100810000A602F4A0832126803689A432C4B083347
:100820001A601A1D126803689A43294B0C331A6028
:100830004279102A0ED11A1F126803681A43244BFA
:1008400008331A601A1D126803681A43204B0C33D0
:100850001A600DE01E49427911440A6803681A4380
:100860000A6005E0027911440A6803689A430A6045
:1008700070470021016001710C21417100218171DB
:1008800070471349103109680143114A1032116051
:100890007047014600200E4A143212680A400AB11D
:1008A000012000E0002070470949143108607047BA
:1008B00001460020064A143212680A400AB101209B
:1008C00000E00020704702491431086070470000C2
:1008D000003C0140FFFF7F0010B504469848844269
:1008E00008D10121084600F086FB0021012000F01C
:1008F00082FB76E09348844208D10121022000F077
:100900007AFB0021022000F076FB6AE08E488442E8
:1009100008D10121042000F06EFB0021042000F02A
:100920006AFB5EE08948844208D10121082000F07A
:1009300062FB0021082000F05EFB52E08448844204
:1009400008D10121102000F056FB0021102000F0FA
:1009500052FB46E07F48844208D10121202000F06C
:100960004AFB0021202000F046FB3AE07A4884420E
:1009700008D10121402000F03EFB0021402000F082
:100980003AFB2EE07548844208D10121802000F016
:1009900032FB0021802000F02EFB22E070488442D0
:1009A00008D10121801500F026FB0021A01500F0E0
:1009B00022FB16E06B48844208D10121401500F06B
:1009C0001AFB0021601500F016FB0AE0664884421D
:1009D00007D10121001500F00EFB0021201500F0C9
:1009E0000AFB10BDF0B50A4600210023002400BF19
:1009F0003DE0012505FA01F3156805EA03049C4270
:100A000034D105684F000326BE40B5430560157913
:100A10004E00B5400668354305601579012D02D0BA
:100A20001579022D16D185684F000326BE40B543C7
:100A3000856055794E00B5408668354385604568C8
:100A400001268E40B5434560456896798E40B6B222
:100A500035434560C5684F000326BE40B543C560B9
:100A6000D5794E00B540C6683543C560491C10298C
:100A7000BFD3F0BD4FF6FF710160002101714171DC
:100A80008171C171704708B54FF480320092009AAD
:100A90000A430092009AC261C161009AC261C269B0
:100AA0000092C269009208BD0246002013690B4003
:100AB0000BB1012000E0002070470146086980B2B8
:100AC00070470246002053690B400BB1012000E043
:100AD000002070470146486980B270470183704723
:100AE000418370470AB1018300E04183704741614F
:100AF000704742694A4042617047F0B500230024C4
:100B00004D07ED0E02FA05F3CE1000F1200555F861
:100B100026504E07F70E0F26BE40B543CF1000F10A
:100B2000200646F82750CE1000F1200555F8265033
:100B300045EA0304CE1000F1200545F82640F0BD3B
:100B4000000002400004024000080240000C024085
:100B5000001002400014024000180240001C024035
:100B6000002002400024024000280240F9480068AA
:100B700040F00100F74908600020F649083108609C
:100B8000F4480068F4490840F2490860F348091D38
:100B90000860F348EF4984310860F0481038091DB7
:100BA0000860EC48006820F48020EA4908600020D2
:100BB000E8490C310860E7498C3108607047002132
:100BC000E44A921C117011460870704710B5014636
:100BD0000022002300204A11012A02D1DD4C2368A3
:100BE00008E0022A03D1DB4C7034236802E0D94CC0
:100BF0007434236801F01F02012494401C400CB19E
:100C0000012000E0002010BD38B500200090002435
:100C1000002500BF3120FFF7D9FF05460098401C92
:100C200000900098B0F5A04F01D0002DF2D03120F7
:100C3000FFF7CCFF08B1012400E00024204638BDB6
:100C400001460020C34A106820F0F80040EAC100C5
:100C500010607047C349086070470021BD4A703278
:100C600011701170012802D004280AD104E001217A
:100C7000B84A7032117005E00521B64A7032117021
:100C800000E000BF00BF7047B7490860704770B50B
:100C9000049C41EA82150126C6EB530645EA064547
:100CA000054345EA0465AB4E361D356070BDAD4960
:100CB00008667047820142EA0172A64B84331A60CB
:100CC0007047A8498866704710B5830143EA0163FD
:100CD00043EA02739F4C8834236010BDA149086722
:100CE0007047A049C864704702460020994B0833FA
:100CF000186820F0EC6042EA01031843954B083372
:100D00001860704702460020924B0833186820F0A4
:100D1000784042EA010318438E4B0833186070474D
:100D2000014600208B4A0832106820F00300084377
:100D30001060704787480830006800F00C0070476A
:100D400001460020834A0832106820F0F000084372
:100D500010607047014600207E4A0832106820F477
:100D6000E05008431060704701460020794A08327D
:100D7000106820F4604040EAC10010607047F0B590
:100D8000002100220024022500260223714F08378B
:100D90003F6807F00C0121B1042905D0082937D19B
:100DA00005E0724F076036E0714F076033E0694F2E
:100DB0003F1D3F68C7F38056664F3F1D3F6807F0F1
:100DC0003F036EB16A4FB7FBF3F7DFF888C10CF150
:100DD000040CDCF800C0CCF3881C07FB0CF40CE01E
:100DE000624FB7FBF3F7DFF86CC10CF1040CDCF8D1
:100DF00000C0CCF3881C07FB0CF4564F3F1D3F6826
:100E0000C7F301477F1C7D00B4FBF5F7076002E0E4
:100E1000564F076000BF00BF4E4F08373F6807F0CE
:100E2000F0010909534F7A5C0768D7404760494F82
:100E300008373F6807F4E051890A4E4F7A5C4768EB
:100E4000D7408760434F08373F6807F46041490B3C
:100E5000484F7A5C4768D740C760F0BD002100F476
:100E60004072B2F5407F0AD13A4A0832116821F443
:100E7000F811414A02401143364A08321160354A9E
:100E800070321268C0F30B031A43324B70331A608E
:100E90007047354944390860704733494039086024
:100EA000704736490860704701460020294A8C3255
:100EB000106820F01F004A1E1043264A8C32106032
:100EC000704701460020234A8C32106820F4F85005
:100ED0004A1E40EA02201F4A8C32106070470146C9
:100EE00000201C4A8C32106820F440100843106027
:100EF000704701460020174A8C32106820F44000E9
:100F000008431060704701460020124A8C32106876
:100F100020F440300843106070471949086070475A
:100F200039B10C4A3032126802430A4B30331A602E
:100F300006E0084A303212688243064B30331A60AA
:100F40007047F9B1034A343212680243014B34331B
:100F50001A601CE000380240FFFFF6EA103000245F
:100F60000030002000004742800E47420024F40079
:100F700000127A0016000020FFFCFF0F5C014742C0
:100F8000E01147428F4A126882438E4B1A607047C5
:100F900039B18C4A121D126802438A4B1B1D1A601C
:100FA00006E0884A121D12688243864B1B1D1A6098
:100FB000704739B1834A0C3212680243814B0C33BB
:100FC0001A6006E07F4A0C32126882437D4B0C3374
:100FD0001A60704739B17B4A103212680243794B6C
:100FE00010331A6006E0774A103212688243754B5C
:100FF00010331A60704739B1724A243A12680243BA
:10100000704B243B1A6006E06E4A243A1268824311
:101010006C4B243B1A60704739B16A4A203A126817
:101020000243684B203B1A6006E0664A203A126889
:101030008243644B203B1A60704739B1614A1C3AC5
:10104000126802435F4B1C3B1A6006E05D4A1C3A83
:10105000126882435B4B1C3B1A60704739B1594A96
:10106000143A12680243574B143B1A6006E0554A83
:10107000143A12688243534B143B1A60704739B1DB
:10108000504A103A126802434E4B103B1A6006E079
:101090004C4A103A126882434A4B103B1A60704720
:1010A00039B1484A1C3212680243464B1C331A605D
:1010B00006E0444A1C3212688243424B1C331A60D9
:1010C000704739B13F4A2032126802433D4B20330A
:1010D0001A6006E03B4A203212688243394B2033C3
:1010E0001A60704739B1374A243212680243354BCF
:1010F00024331A6006E0334A243212688243314BAB
:1011000024331A60704739B12E4A2C3212680243D8
:101110002C4B2C331A6006E02A4A2C321268824388
:10112000284B2C331A60704739B1264A3032126886
:101130000243244B30331A6006E0224A30321268F0
:101140008243204B30331A607047012808D11D4973
:101150003C31096841F008011A4A3C32116007E04D
:1011600018493C31096821F00801164A3C321160E7
:10117000704739B1134A273A12780243114B273B83
:101180001A7006E00F4A273A127882430D4B273B2C
:101190001A7070470B484030006840F08070094971
:1011A00040310860704701460020064A283A12681C
:1011B0000A400AB1012000E00020704701492639A9
:1011C000087070473438024010B501218803FFF7DA
:1011D00056FF00214FF48040FFF751FF10BD1C491E
:1011E000086070471B490862704730B500228B07C2
:1011F0001C0F0F2303FA04F2154B08338C1053F81D
:1012000024309343124C08348D1044F82530234683
:101210008C1053F824308C07240F00FA04F4234375
:101220000B4C08348D1044F8253030BD0949DC31B1
:101230000860704708490860704700200449203161
:10124000096801F4807109B1012000E000207047B5
:1012500000380140000027420004274270477047D1
:101260007047754600F028F8AE46050069465346BB
:1012700020F00700854618B020B5FFF723FABDE837
:1012800020404FF000064FF000074FF000084FF0ED
:10129000000B21F00701AC46ACE8C009ACE8C0097E
:1012A000ACE8C009ACE8C0098D4670470446AFF30E
:1012B00000802046FEF7B1FF00487047280000205C
:1012C00001491820ABBEFEE72600020070474FF030
:1012D0004070E1EE100A7047F8120008000000208C
:1012E00028000000C4010008201300082800002086
:1012F00060060000E0010008007A030A0000000018
:1013000000000000010203040607080900000000B5
:10131000000001020304010203040607080900009B
:040000050800018965
:00000001FF
