:020000040800F2
:1000000088060020E90B0008B9020008BB020008BE
:10001000BF020008C3020008C70200080000000079
:10002000000000000000000000000000CB020008FB
:10003000CD02000800000000CF020008D102000835
:10004000030C0008030C0008030C0008030C000854
:10005000030C0008030C0008030C0008030C000844
:10006000030C0008030C0008030C0008030C000834
:10007000030C0008030C0008030C0008030C000824
:10008000030C0008030C0008030C0008030C000814
:10009000030C0008030C0008030C0008030C000804
:1000A000030C0008030C0008030C0008030C0008F4
:1000B000030C0008D3020008030C0008030C00081E
:1000C000030C0008030C0008030C0008030C0008D4
:1000D000030C0008030C0008030C0008030C0008C4
:1000E000030C0008030C0008030C0008030C0008B4
:1000F000030C0008030C0008030C0008030C0008A4
:10010000030C0008030C0008030C0008030C000893
:10011000030C0008030C0008030C0008030C000883
:10012000030C0008030C0008030C0008030C000873
:10013000030C0008030C0008030C0008030C000863
:10014000030C0008030C0008030C0008030C000853
:10015000030C0008030C0008030C0008030C000843
:10016000030C0008030C0008030C0008030C000833
:10017000030C0008030C0008030C0008030C000823
:10018000030C0008030C000800F002F800F03CF833
:100190000AA090E8000C82448344AAF10107DA45E2
:1001A00001D100F031F8AFF2090EBAE80F0013F0F8
:1001B000010F18BFFB1A43F001031847F035000088
:1001C00010360000103A24BF78C878C1FAD8520718
:1001D00024BF30C830C144BF04680C6070470000C1
:1001E0000023002400250026103A28BF78C1FBD840
:1001F000520728BF30C148BF0B6070471FB502F0DF
:100200008FFD1FBD10B510BD02F05BFD1146FFF75D
:10021000F5FF00F009F802F079FD03B4FFF7F2FFF3
:1002200003BC00F0E0F900004FF478401449088066
:100230004FF6FF701349088000F062FB4FF6FF7025
:1002400000F044FA0E4803880FA232211E2000F06D
:100250009BFC0B48038810A246211E2000F094FC52
:10026000074803880FA25A211E2000F08DFC044885
:1002700003880EA26E211E2000F086FC00BFFEE760
:1002800014000020160000204D696E692053544D63
:100290003332205E5F5E00005446544C4344205489
:1002A0004553540050696F6E6565720032303039C5
:1002B0002F31322F33300000704700BFFEE700BF00
:1002C000FEE700BFFEE700BFFEE7704770477047DC
:1002D000704710B50121124802F0D7F9F8B1012199
:1002E0000F4802F0E3F94FF400710E4801F0E5F811
:1002F000C0F10100C4B222464FF40071094801F078
:10030000EDF84FF48061074801F0D7F8C0F1010023
:10031000C4B222464FF48061024801F0DFF810BDFC
:1003200000040040001402400CB500200190009031
:100330007648006840F480307449086000BF734814
:10034000006800F4003000900198401C0190009873
:1003500018B90198B0F5A04FF1D16C48006800F4CD
:10036000003010B10120009001E0002000900098C2
:10037000012846D165484030006840F0805063490C
:10038000403108606248006840F4404060490860BD
:100390005E48083000685D4908310860084600681A
:1003A00040F4004008600846006840F4A05008602F
:1003B0005848091F0860081F006840F08070091F36
:1003C000086000BF5148006800F000700028F9D0B4
:1003D00040F20570504908604C480830006820F031
:1003E00003004A49083108600846006840F00200EE
:1003F000086000BF45480830006800F00C0008287D
:10040000F8D10CBD10B54548006840F47000434970
:1004100008603E48006840F001003C490860002048
:100420003A4908310860394800683D490840374971
:1004300008603C48091D0860081F006820F48020FF
:10044000091F0860002031490C310860FFF76CFF7C
:100450004FF0006031498039086010BD70B5002050
:100460000022022300240221284D08352D6805F0C2
:100470000C0020B1042806D0082834D107E02A4D0A
:100480002A4E356033E02A4D284E35602FE01F4D4F
:100490002D1D2D68C5F380541C4D2D1D2D6805F0B4
:1004A0003F0154B1224DB5FBF1F5184E361D3668AB
:1004B000C6F3881605FB06F209E01B4DB5FBF1F506
:1004C000124E361D3668C6F3881605FB06F20F4D30
:1004D0002D1D2D68C5F301456D1C6B00B2FBF3F5B6
:1004E000124E356003E0104D104E356000BF00BF66
:1004F000064D08352D68C5F303150E4E705D0B4D86
:100500002D68C540094E356070BD000000380240BE
:100510000070004008544007003C024088ED00E0B5
:10052000FFFFF6FE103000240024F400000000203D
:1005300000127A000400002008B54FF4A06000F01B
:1005400073FB25208DF8000000208DF801008DF848
:10055000020001208DF80300684600F06AFB08BD28
:1005600000B587B00121084601F0D6F9012110201D
:1005700001F02CFA07220921244800F0BAFF0722D3
:100580000A21224800F0B5FF4FF4C0600590022018
:100590008DF818008DF8190000208DF81A00012040
:1005A0008DF81B0005A9194800F018FF4FF4E13041
:1005B00001900020ADF80800ADF80A00ADF80C007D
:1005C000ADF810000C20ADF80E0001A9104802F0A3
:1005D000B0F901210E4802F034FA40210C4802F033
:1005E00018FB07B000BD014600BF704770B5044658
:1005F0000D46E1B2064802F04FFA00BF4021044820
:1006000002F0FAFA0028F9D0204670BD000002403E
:100610000010014000E0401E0028FCD1704700009F
:10062000FE4908807047FD49891C08807047FB48D7
:10063000801C00887047F94A10804FF0D842A2F819
:100640008010704700B502461046FFF7E9FFFFF73C
:10065000EEFF00BD2220F14908807047EF49891C58
:100660000880704700B50346012B05D140F2731195
:100670000720FFF7E0FF03E000210720FFF7DBFF83
:1006800000BD10B503460C4619462020FFF7D3FFE6
:1006900021462120FFF7CFFF10BD00B5002343F016
:1006A000100343F4805319460320FFF7C4FF00BD35
:1006B00070B505460E46144631462846FFF7E1FF61
:1006C000FFF7C8FFD548801C048070BD30B50446D4
:1006D000002500210846FFF7D4FFFFF7BBFF00BF4E
:1006E00003E0CE48801C04806D1CB5F5963FF8D31E
:1006F00030BD00B59FB001217A2001F00DF9012134
:10070000084601F041F94FF400401D9001208DF89A
:10071000780000208DF87A0002208DF87900012001
:100720008DF87B001DA9BE4800F058FE4CF23370D6
:100730001D9002208DF8780000208DF87A000320AB
:100740008DF8790001208DF87B001DA9B54800F0D7
:1007500045FE4FF680701D9002208DF87800002035
:100760008DF87A0003208DF8790001208DF87B0048
:100770001DA9AD4800F032FE4FF480501D900220BC
:100780008DF8780000208DF87A0003208DF879002C
:1007900001208DF87B001DA9A44800F01FFE4FF436
:1007A00080501D9002208DF8780000208DF87A008E
:1007B00003208DF8790001208DF87B001DA99C484D
:1007C00000F00CFE0C220021964800F092FE0C2254
:1007D0000121944800F08DFE0C220421914800F084
:1007E00088FE0C2205218F4800F083FE0C22082190
:1007F0008C4800F07EFE0C2209218A4800F079FE28
:100800000C220A21874800F074FE0C220E21854834
:1008100000F06FFE0C220F21824800F06AFE0C22CD
:100820000721814800F065FE0C2208217E4800F077
:1008300060FE0C2209217C4800F05BFE0C220A219C
:10084000794800F056FE0C220B21774800F051FE4B
:100850000C221146744800F04CFE0C220D21724807
:1008600000F047FE0C220E216F4800F042FE0C22E1
:100870000F216D4800F03DFE0C2211466B4800F040
:1008800038FE0C2211466A4800F033FE0F20079014
:10089000002008903C20099000200A900B900C90BA
:1008A0000D90092000900020019008200290002067
:1008B000039004900590069006200E9000200F9063
:1008C0001090102011900020129014901390159009
:1008D00016904FF480501790002018904FF48040ED
:1008E000199000201A9007A81B90CDF870D00EA880
:1008F00000F025FA0121062000F0ACFA1FB000BD7F
:1009000010B5FFF7F6FE4B48FFF784FE47F6F001FF
:10091000E520FFF790FE4FF480710120FFF78BFE7A
:100920004FF4E0610220FFF786FE41F23001032020
:10093000FFF781FE00210420FFF77DFE40F2022137
:100940000820FFF778FE00210920FFF774FE002140
:100950000A20FFF770FE00210C20FFF76CFE00213B
:100960000D20FFF768FE00210F20FFF764FE002135
:100970001020FFF760FE07211120FFF75CFE002129
:100980001220FFF758FE00211320FFF754FE00212C
:100990000720FFF750FE41F290611020FFF74BFE59
:1009A00040F227211120FFF746FE9D211220FFF77C
:1009B00042FE4FF4C8511320FFF73DFE25212920A8
:1009C000FFF739FE0D212B20FFF735FE07213020E0
:1009D000FFF731FE40F203313120FFF72CFE0321F7
:1009E0003220FFF728FE40F206213520FFF723FED4
:1009F00008213620FFF71FFE40F206413720FFF79F
:100A00001AFE4FF441713820FFF715FE07213920F7
:100A1000FFF711FE40F202613C200DE07E00006C09
:100A200000040240000C024000100240001402408A
:100A300000180240FFFF0F00FFF7FDFD08213D20D9
:100A4000FFF7F9FD00215020FFF7F5FDEF215120C0
:100A5000FFF7F1FD00215220FFF7EDFD40F23F11BD
:100A60005320FFF7E8FD4FF427416020FFF7E3FD37
:100A700001216120FFF7DFFD00216A20FFF7DBFD88
:100A800000218020FFF7D7FD00218120FFF7D3FD53
:100A900000218220FFF7CFFD00218320FFF7CBFD4F
:100AA00000218420FFF7C7FD00218520FFF7C3FD4B
:100AB00010219020FFF7BFFD4FF4C0619220FFF797
:100AC000BAFD40F233110720FFF7B5FD22210020C7
:100AD000FFF7B1FDFFF7E1FD4FF40041014800F0E1
:100AE000F9FC10BD000402402DE9F84F05460F4601
:100AF00016469846AB46E82D02DCB7F59C7F01DD33
:100B0000BDE8F88FA6F12000C6B20A98002839D1B6
:100B1000002435E0B8F10C0F09D106EB46002F494F
:100B200001EB800010F804900620009006E02C48AD
:100B300000EB061010F80490082000904FF0000A17
:100B400016E009F0010028B1394628460B9AFFF754
:100B5000AFFD05E02348028839462846FFF7A8FD87
:100B60004FEA6909681C85B20AF1010000F0FF0A2A
:100B700000988245E5DB5D46781C87B2601CC4B2F4
:100B80004445C7DB00BFBBE72DE9FC4105460E46E7
:100B900014461F461CE0E82D03DD002506F1100079
:100BA00086B2B6F59C7F06DD0020054606464FF668
:100BB000FF70FFF78BFD0020CDE90007227810239E
:100BC00031462846FFF790FF05F1080085B2641C06
:100BD00020780028DFD1BDE8FC8100002A2D000824
:100BE0009E31000816000020094880470948004748
:100BF000FEE7FEE7FEE7FEE7FEE7FEE7FEE7FEE7CD
:100C0000FEE7FEE704480549054A064B7047000029
:100C100005040008890100088800002088060020DB
:100C2000880200208802002032490143324A1160C4
:100C3000704770B5002100230F22C4781CB32E4CDE
:100C4000246804F4E064C4F5E064C4F30721C1F14E
:100C50000404E3B20A4144789C40E1B28478144031
:100C600021430C07210E254C05786155047804F0CA
:100C70001F050124AC4005786D11AD0005F1E0259C
:100C8000C5F8004109E0047804F01F050124AC40D8
:100C90001B4D0678761145F8264070BD194A0A406A
:100CA0000243154B1B1F1A60704739B1124A121DBF
:100CB00012680243104B1B1D1A6006E00E4A121DFB
:100CC000126882430C4B1B1D1A607047042808D120
:100CD0004FF0E021096941F004014FF0E022116179
:100CE00007E04FF0E021096921F004014FF0E02214
:100CF000116170470000FA050CED00E000E400E02F
:100D000080E100E080FFFF1F30B943F2DB02810089
:100D1000A1F1C0410A6005E043F2D2028100A1F1D5
:100D2000C0410A606FF07042411C8900A1F1C041CE
:100D30000A608100A1F1C041C1F804217047D0E9E7
:100D400001121143C2681143026911434269114300
:100D500082691143C2691143026A1143426A114315
:100D6000826A1143C26A1143026B11430268920006
:100D7000A2F1C0421160816808290BD10168890085
:100D8000A1F1C041096841F0400201688900A1F168
:100D9000C0410A60416B0968426B526841EA021126
:100DA000426B926841EA0221426B928941EA024118
:100DB000426B128A41EA0251426B127D41EA0261A2
:100DC000426B926911430268521C9200A2F1C04228
:100DD0001160C16AB1F5804F1BD1816B0968826BCC
:100DE000526841EA0211826B926841EA0221826BE9
:100DF000128A41EA0251826B127D41EA0261826BE2
:100E00009269114302689200A2F1C042C2F8041133
:100E100007E06FF0704201688900A1F1C041C1F89C
:100E2000042170470021016002214160002181609E
:100E3000C160016141618161C16101624FF4805112
:100E40004162490081620021C1620163F849416346
:100E50008163704751B18200A2F1C042126842F032
:100E600001038200A2F1C042136009E08200A2F1F6
:100E7000C0421268EF4B1A408300A3F1C0431A60CE
:100E8000704710280AD118214FF0204211664021E6
:100E900051664FF0FC319166D16610E01821E64AA8
:100EA000116040214FF02042C2F884104FF0FC3115
:100EB000E14A083211604FF02042C2F88C107047AE
:100EC00030B5002100220023446844F008048568FE
:100ED0002C43C5682C4305692C43456944EA4524E5
:100EE000856944EA4531C4692468C5696D6844EA86
:100EF0000524C5692D8944EA0544C5692D7B44EA6A
:100F00000562046A2468056A6D6844EA0524056A76
:100F10002D8944EA0544056A2D7B44EA056304688B
:100F2000102C05D14FF020442166A266E36608E04C
:100F3000C14C21604FF02044C4F88820BE4C0C34D2
:100F4000236030BD10210160002141608160C160DB
:100F5000016141618161FC21C2691160C269516016
:100F6000C2699160C269D160026A1160026A51600F
:100F7000026A9160026AD160704799B1102808D165
:100F80004FF02042126E42F004024FF020431A66E6
:100F90001DE0A94A126842F004024FF02043C3F852
:100FA000802014E0102809D14FF02042126EA14B8E
:100FB000DB1E1A404FF020431A6608E09E4A126872
:100FC0009C4BDB1E1A404FF02043C3F88020704733
:100FD00099B1102808D14FF02042126E42F0400221
:100FE0004FF020431A661DE0934A126842F0400217
:100FF0004FF02043C3F8802014E0102809D14FF0AF
:101000002042126E8B4B3F3B1A404FF020431A6632
:1010100008E0894A1268874B3F3B1A404FF0204353
:10102000C3F88020704701460020102903D14FF0FB
:101030002042506F02E0804A143210687047182036
:101040007D492031086000200906C1F8A4004FF056
:10105000FC30794928310860091D0860091D0860C5
:101060007047016841F01001426841EA42218268FC
:1010700041EA4231704A20321160C1680968C26891
:10108000526841EA0221C268128941EA0241C268FB
:10109000127B41EA0261684A2832116001690968DD
:1010A0000269526841EA02210269128941EA024159
:1010B0000269127B41EA02615F4A2C321160416988
:1010C00009684269526841EA02214269128941EA8B
:1010D00002414269127B41EA02614FF02042C2F8AC
:1010E000B01070470021016041608160FC21C2683E
:1010F0001160C2685160C2689160C268D1600269C3
:10110000116002695160026991600269D1604269AF
:10111000116042695160426991604269D1607047D3
:1011200048B145492031096841F004014FF020429F
:10113000C2F8A01009E04049203109683D4AD21E9A
:1011400011404FF02042C2F8A010704710B5F2B124
:10115000102807D14FF020435B6E0B434FF0204423
:10116000636632E0B0F5807F08D1334B1B1D1B68EE
:101170000B434FF02044C4F8843026E02E4B243338
:101180001B680B434FF02044C4F8A4301DE0102826
:1011900007D14FF020435B6E8B434FF020446366D2
:1011A00013E0B0F5807F08D1234B1B1D1B688B43D8
:1011B0004FF02044C4F8843007E01F4B24331B68F1
:1011C0008B434FF02044C4F8A43010BD10B5024644
:1011D00000200023102A03D14FF02044636E09E061
:1011E000B2F5807F03D1144C241D236802E0124C19
:1011F0002434236803EA01040CB1012000E000203C
:1012000010BD102807D14FF02042526E8A434FF094
:1012100020435A6619E0B0F5807F0FD1064A121DAF
:1012200012688A434FF02043C3F884200DE0000089
:1012300090370008FEFF0F00800000A0234A1268CC
:101240008A434FF02043C3F8A420704770B502468C
:101250000020002300240025102A03D14FF020464F
:10126000736E08E0B2F5807F03D1184E203E3368DC
:1012700001E0164E336803EA010403EAD10514B114
:101280000DB1012000E0002070BD102808D14FF002
:101290002042526E22EAD1024FF020435A6614E0F7
:1012A000B0F5807F09D1094A203A126822EAD102BA
:1012B0004FF02043C3F8842007E0044A126822EA72
:1012C000D1024FF02043C3F8A4207047A40000A02F
:1012D00010B504469848844208D10121084600F020
:1012E00086FB0021012000F082FB76E093488442D7
:1012F00008D10121022000F07AFB0021022000F039
:1013000076FB6AE08E48844208D10121042000F077
:101310006EFB0021042000F06AFB5EE089488442F5
:1013200008D10121082000F062FB0021082000F014
:101330005EFB52E08448844208D10121102000F075
:1013400056FB0021102000F052FB46E07F4884420B
:1013500008D10121202000F04AFB0021202000F0CC
:1013600046FB3AE07A48844208D10121402000F04F
:101370003EFB0021402000F03AFB2EE075488442FD
:1013800008D10121802000F032FB0021802000F0F4
:101390002EFB22E07048844208D10121801500F024
:1013A00026FB0021A01500F022FB16E06B488442CA
:1013B00008D10121401500F01AFB0021601500F052
:1013C00016FB0AE06648844207D10121001500F0AF
:1013D0000EFB0021201500F00AFB10BDF0B50A46F7
:1013E00000210023002400BF3DE0012505FA01F3A0
:1013F000156805EA03049C4234D105684F000326B2
:10140000BE40B543056015794E00B54006683543CA
:1014100005601579012D02D01579022D16D1856848
:101420004F000326BE40B543856055794E00B54058
:10143000866835438560456801268E40B543456022
:10144000456896798E40B6B235434560C5684F0011
:101450000326BE40B543C560D5794E00B540C66889
:101460003543C560491C1029BFD3F0BD4FF6FF714D
:1014700001600021017141718171C171704708B52E
:101480004FF480320092009A0A430092009AC2619F
:10149000C161009AC261C2690092C269009208BD2E
:1014A0000246002013690B400BB1012000E0002030
:1014B00070470146086980B27047024600205369B0
:1014C0000B400BB1012000E0002070470146486945
:1014D00080B2704701837047418370470AB101832E
:1014E00000E0418370474161704742694A40426170
:1014F0007047F0B5002300244D07ED0E02FA05F306
:10150000CE1000F1200555F826504E07F70E0F2695
:10151000BE40B543CF1000F1200646F82750CE104C
:1015200000F1200555F8265045EA0304CE1000F1DD
:10153000200545F82640F0BD0000024000040240AE
:1015400000080240000C024000100240001402405B
:1015500000180240001C024000200240002402400B
:1015600000280240F948006840F00100F74908608F
:101570000020F64908310860F4480068F449084042
:10158000F2490860F348091D0860F348EF498431C7
:101590000860F0481038091D0860EC48006820F425
:1015A0008020EA4908600020E8490C310860E749DA
:1015B0008C31086070470021E44A921C117011467A
:1015C0000870704710B501460022002300204A1120
:1015D000012A02D1DD4C236808E0022A03D1DB4C4A
:1015E0007034236802E0D94C7434236801F01F0280
:1015F000012494401C400CB1012000E0002010BDEB
:1016000038B5002000900024002500BF3120FFF7EE
:10161000D9FF05460098401C00900098B0F5A04FF7
:1016200001D0002DF2D03120FFF7CCFF08B101240A
:1016300000E00024204638BD01460020C34A10685F
:1016400020F0F80040EAC10010607047C34908600C
:1016500070470021BD4A703211701170012802D00C
:1016600004280AD104E00121B84A7032117005E063
:101670000521B64A7032117000E000BF00BF70470C
:10168000B7490860704770B5049C41EA821501268D
:10169000C6EB530645EA0645054345EA0465AB4EED
:1016A000361D356070BDAD4908667047820142EA5B
:1016B0000172A64B84331A607047A8498866704748
:1016C00010B5830143EA016343EA02739F4C8834F7
:1016D000236010BDA14908677047A049C8647047DE
:1016E00002460020994B0833186820F0EC6042EA6B
:1016F00001031843954B08331860704702460020D9
:10170000924B0833186820F0784042EA01031843EE
:101710008E4B083318607047014600208B4A083210
:10172000106820F0030008431060704787480830B5
:10173000006800F00C00704701460020834A083220
:10174000106820F0F0000843106070470146002048
:101750007E4A0832106820F4E05008431060704759
:1017600001460020794A0832106820F4604040EABF
:10177000C10010607047F0B500210022002402254E
:1017800000260223714F08373F6807F00C0121B192
:10179000042905D0082937D105E0724F076036E0EB
:1017A000714F076033E0694F3F1D3F68C7F38056B4
:1017B000664F3F1D3F6807F03F036EB16A4FB7FBAE
:1017C000F3F7DFF888C10CF1040CDCF800C0CCF3AF
:1017D000881C07FB0CF40CE0624FB7FBF3F7DFF853
:1017E0006CC10CF1040CDCF800C0CCF3881C07FBC6
:1017F0000CF4564F3F1D3F68C7F301477F1C7D0027
:10180000B4FBF5F7076002E0564F076000BF00BF6A
:101810004E4F08373F6807F0F0010909534F7A5CD3
:101820000768D7404760494F08373F6807F4E051E1
:10183000890A4E4F7A5C4768D7408760434F083724
:101840003F6807F46041490B484F7A5C4768D740CE
:10185000C760F0BD002100F44072B2F5407F0AD1AC
:101860003A4A0832116821F4F811414A0240114302
:10187000364A08321160354A70321268C0F30B03E1
:101880001A43324B70331A60704735494439086047
:1018900070473349403908607047364908607047DF
:1018A00001460020294A8C32106820F01F004A1E91
:1018B0001043264A8C321060704701460020234AAC
:1018C0008C32106820F4F8504A1E40EA02201F4A69
:1018D0008C3210607047014600201C4A8C32106820
:1018E00020F4401008431060704701460020174A5A
:1018F0008C32106820F440000843106070470146A5
:101900000020124A8C32106820F4403008431060E6
:10191000704719490860704739B10C4A3032126873
:1019200002430A4B30331A6006E0084A303212682C
:101930008243064B30331A607047F9B1034A3432A0
:1019400012680243014B34331A601CE00038024035
:10195000FFFFF6EA1030002400300020000047426C
:10196000800E47420024F40000127A001800002084
:10197000FFFCFF0F5C014742E01147428F4A1268AB
:1019800082438E4B1A60704739B18C4A121D12681F
:1019900002438A4B1B1D1A6006E0884A121D12681A
:1019A0008243864B1B1D1A60704739B1834A0C3243
:1019B00012680243814B0C331A6006E07F4A0C32F6
:1019C000126882437D4B0C331A60704739B17B4AF1
:1019D000103212680243794B10331A6006E0774ADE
:1019E000103212688243754B10331A60704739B158
:1019F000724A243A12680243704B243B1A6006E094
:101A00006E4A243A126882436C4B243B1A6070473A
:101A100039B16A4A203A12680243684B203B1A6087
:101A200006E0664A203A12688243644B203B1A6003
:101A3000704739B1614A1C3A126802435F4B1C3B44
:101A40001A6006E05D4A1C3A126882435B4B1C3BFD
:101A50001A60704739B1594A143A12680243574B19
:101A6000143B1A6006E0554A143A12688243534BFD
:101A7000143B1A60704739B1504A103A1268024359
:101A80004E4B103B1A6006E04C4A103A12688243F3
:101A90004A4B103B1A60704739B1484A1C321268F1
:101AA0000243464B1C331A6006E0444A1C3212685B
:101AB0008243424B1C331A60704739B13F4A20328F
:101AC000126802433D4B20331A6006E03B4A203245
:101AD00012688243394B20331A60704739B1374A54
:101AE000243212680243354B24331A6006E0334A2D
:101AF000243212688243314B24331A60704739B163
:101B00002E4A2C32126802432C4B2C331A6006E00A
:101B10002A4A2C3212688243284B2C331A607047B1
:101B200039B1264A303212680243244B30331A60EE
:101B300006E0224A303212688243204B30331A606A
:101B40007047012808D11D493C31096841F008015E
:101B50001A4A3C32116007E018493C31096821F00B
:101B60000801164A3C321160704739B1134A273ACE
:101B700012780243114B273B1A7006E00F4A273AAE
:101B8000127882430D4B273B1A7070470B48403048
:101B9000006840F080700949403108607047014694
:101BA0000020064A283A12680A400AB1012000E0E3
:101BB00000207047014926390870704734380240C8
:101BC00010B50446FE48844208D101210846FFF7BB
:101BD00052FF00210120FFF74EFF9DE0B4F1804F3E
:101BE00008D101210846FFF735FF00210120FFF74A
:101BF00031FF91E0F348844208D101210220FFF730
:101C000029FF00210220FFF725FF85E0EE488442EE
:101C100008D101210420FFF71DFF00210420FFF758
:101C200019FF79E0E948844208D101210820FFF733
:101C300011FF00210820FFF70DFF6DE0E44884420A
:101C400008D101211020FFF705FF00211020FFF728
:101C500001FF61E0DF48844208D101212020FFF725
:101C6000F9FE00212020FFF7F5FE55E0DA48844216
:101C700008D101210220FFF7FEFE00210220FFF71C
:101C8000FAFE49E0D548844209D101210804FFF752
:101C9000F2FE00214FF48030FFF7EDFE3CE0D0482B
:101CA000844209D101214804FFF7E5FE00214FF4E9
:101CB0000030FFF7E0FE2FE0CA48844209D101213D
:101CC0008804FFF7D8FE00214FF48020FFF7D3FEF1
:101CD00022E0C548844208D101214020FFF7BAFE26
:101CE00000214020FFF7B6FE16E0C048844208D12C
:101CF00001218020FFF7AEFE00218020FFF7AAFE21
:101D00000AE0BB48844207D101218015FFF7A2FEFB
:101D10000021A015FFF79EFE10BD00220288A84BEF
:101D200098420ED0AC4B98420BD0B0F1804F08D007
:101D3000A44B984205D0A44B984202D0A34B9842A2
:101D400004D14FF68F731A404B881A43A04B984228
:101D500007D0A04B984204D04FF6FF431A400B899E
:101D60001A4302804B68C3620B880385944B9842E8
:101D700002D0994B984201D18B7A0386012383824A
:101D800070474FF0FF3141600021018001814180A7
:101D9000817270470185828270470A46002101885E
:101DA0004FF68F73194011430180704741627047AD
:101DB000C16270470146486A70470146088D704706
:101DC00021B1028842F00202028004E002884FF64C
:101DD000FD731A400280704721B1028842F004026C
:101DE000028004E002884FF6FB731A4002807047BD
:101DF00021B1028842F08002028004E002884FF69E
:101E00007F731A400280704702884FF6F7731A40BA
:101E1000028002880A430280704702884FF6FF431F
:101E20001A40028002880A430280704721B102886A
:101E300042F00102028004E002884FF6FE731A406D
:101E40000280704770B5002400220023058C4FF6F5
:101E5000FE7635400584028C8388048B4FF68F759F
:101E60002C40B51E2C400D882C43751E2A408D89B0
:101E70002A434D882A43524DA84202D0564DA842CB
:101E800013D14FF6F7752A40CD892A434FF6FB75DB
:101E90002A408D882A434FF6FF652B404FF6FF55A9
:101EA0002B400D8A2B434D8A2B43838004838D68FE
:101EB0004563028470BD70B5002400220023058CA8
:101EC0004FF6EF7635400584028C8388048B48F604
:101ED000FF752C404FF6FF452C400D884FF6FF76DE
:101EE00006EA05252C434FF6DF752A408D8906EA60
:101EF00005152A434D8806EA05152A43304DA842A8
:101F000002D0354DA8421DD14FF67F752A40CD89AC
:101F10004FF6FF7606EA05152A434FF6BF752A40AD
:101F20008D8806EA05152A434FF6FF352B404FF200
:101F3000FF752B400D8A06EA85052B434D8A06EA7C
:101F400085052B43838004838D688563028470BD7F
:101F500070B5002400220023058C4FF6FF66354043
:101F60000584028C8388848B4FF68F752C404FF646
:101F7000FC752C400D882C434FF6FF552A408D8967
:101F80004FF6FF7606EA05252A434D8806EA052521
:101F90002A430B4DA84202D00F4DA84238D14FF230
:101FA000FF752A40CD894FF6FF7606EA05252A43BC
:101FB0004FF6FF352A408D8806EA05252A4319E0A9
:101FC000000001400004004000080040000C0040F8
:101FD0000010004000140040000401400040014097
:101FE000004401400048014000180040001C00402F
:101FF000002000404EF6FF752B404DF6FF752B403C
:102000000D8A06EA05152B434D8A06EA05152B4372
:10201000838084838D68C563028470BD70B500229F
:1020200000230024058C4EF6FF7635400584038C92
:102030008488828B48F6FF752A404FF6FF452A4078
:102040000D884FF6FF7606EA05252A434DF6FF7503
:102050002B408D8906EA05352B434D8806EA053568
:102060002B43FE4DA84202D0FD4DA84208D14BF6AD
:10207000FF752C400D8A4FF6FF7606EA85152C4336
:10208000848082838D680564038470BD0021018093
:102090004180818081608181C1810182418270475C
:1020A00070B50346002000241846183001258D40E5
:1020B000ACB21D8CA5431D8409B108290AD100EBDF
:1020C000610005684FF68F76354005600568154359
:1020D00005600FE00D1FC5F34E052844056848F65E
:1020E000FF763540056005684FF6FF7606EA022662
:1020F0003543056070BD4163704781637047C163BC
:102100007047016470470A460021018B4FF68F73B8
:1021100019401143018370470A460021018B48F69C
:10212000FF7319404FF6FF7303EA0223194301833B
:1021300070470A460021818B4FF68F731940114377
:10214000818370470A460021818B48F6FF7319404E
:102150004FF6FF7303EA02231943818370470A464F
:102160000021018B4FF6F77319401143018370472B
:102170000A460021018B4FF2FF7319404FF6FF739F
:1021800003EA02231943018370470A460021818B29
:102190004FF6F77319401143818370470A460021B7
:1021A000818B4FF2FF7319404FF6FF7303EA02234E
:1021B0001943818370470A460021018B4FF6FB7358
:1021C00019401143018370470A460021018B4FF6E5
:1021D000FF3319404FF6FF7303EA022319430183CB
:1021E00070470A460021818B4FF6FB73194011435B
:1021F000818370470A460021818B4FF6FF331940D7
:102200004FF6FF7303EA02231943818370470A469E
:102210000021018B4FF67F731940114301837047F2
:102220000A460021018BC1F30E014FF6FF7303EA4A
:1022300002231943018370470A460021818B4FF620
:102240007F7319401143818370470A460021818BB7
:10225000C1F30E014FF6FF7303EA02231943818392
:1022600070470A460021018C4FF6FD731940114357
:10227000018470470A460021018C4FF6F77319401C
:102280001143018470470A460021018C4FF6DF7329
:1022900019404FF6FF7303EA021319430184704794
:1022A0000A460021018C4FF67F7319404FF6FF73E9
:1022B00003EA02131943018470470A460021018C86
:1022C0004FF6FF5319404FF6FF7303EA02231943F9
:1022D000018470470A460021018C4FF2FF731940B8
:1022E0004FF6FF7303EA02231943018470470A463D
:1022F0000021018C4DF6FF7319404FF6FF7303EA7E
:10230000023319430184704730B5002301248C4007
:10231000A3B2048C9C430484048C02FA01F5ADB290
:102320002C43048430BD30B5002304248C40A3B278
:10233000048C9C430484048C02FA01F5ADB22C4356
:10234000048430BD828B4FF2FF331A408283828B2C
:102350004FF6FF7303EA01231A4382837047F0B5F7
:102360000C461546002100220026078C4EF6FF7C05
:1023700007EA0C070784818B028C4FF6FF7707EA88
:10238000043640F6FF4739404FF6FF7707EA052746
:1023900039434FF6FF7707EA0337394345F6FF77AE
:1023A0003A4046F480573A4381830284F0BD828BE1
:1023B0004FF6F3731A408283828B0A4382837047FD
:1023C000F0B50C461546002100220026078C4FF67A
:1023D000FF6C07EA0C070784818B028C4FF6FF77AE
:1023E00007EA04264FF60C7739404FF6FF7707EAE5
:1023F00003172F4339434FF2FF573A4046F4807793
:102400003A4381830284F0BD028B4FF2FF331A40BE
:102410000283028B4FF6FF7303EA01231A43028300
:102420007047F0B50C461546002100220026078CA7
:102430004FF6EF7C07EA0C070784018B028C4FF6FE
:10244000FF7707EA041640F6FF4739404FF6FF775B
:1024500007EA033739434FF6FF7703E000000140F6
:102460000004014007EA052739434FF65F773A40F9
:1024700046F010073A4301830284F0BD028B4FF609
:10248000F3731A400283028B0A4302837047F0B54C
:102490000C46154600210022068C4FF6FE773E4082
:1024A0000684018B028C4FF60C7631407E1C06EAC6
:1024B00003162E4331434FF6F576324044F00106C1
:1024C000324301830284F0BD70B505460C46208876
:1024D00050B92389A28861882846FFF7D8FFE18890
:1024E0002846FFF7CBFF25E0208804280AD123895E
:1024F000A28861882846FFF794FFE1882846FFF705
:1025000083FF17E0208808280AD12389A2886188E0
:102510002846FFF755FFE1882846FFF748FF09E006
:102520002389A28861882846FFF719FFE188284699
:10253000FFF708FF70BD00210180418001218180EB
:102540000021C180018170472DE9F04105460C460C
:1025500000260127608808B9022600E00026A0882E
:10256000012801D1022700E001272088A0B9238992
:10257000A28861882846FFF78AFFE1882846FFF78E
:102580007DFF23893A4631462846FFF74AFFE18816
:102590002846FFF739FF13E02389A288618828467F
:1025A000FFF73FFFE1882846FFF72EFF23893A46D1
:1025B00031462846FFF76BFFE1882846FFF75EFFAC
:1025C000BDE8F0810146486B70470146886B704753
:1025D0000146C86B70470146086C70470A884B88F3
:1025E0001A438B881A43CB881A430B891A434B89A9
:1025F0001A438B891A43A0F84420704700210180B8
:1026000041808180C180018141818181704731B1E8
:10261000B0F8442042F40042A0F8442005E0B0F8AD
:102620004420C2F30E02A0F84420704721B18288F2
:1026300042F00402828004E082884FF6FB731A4065
:102640008280704721B1828842F00102828004E0DA
:1026500082884FF6FE731A40828070471AB18389D0
:102660000B43838102E083898B438381704781829E
:10267000704702460020138A0B400BB1012000E096
:1026800000207047CA430282704730B502460020DE
:1026900000230024158A05EA0103958905EA01044F
:1026A00013B10CB1012000E0002030BDCA4302820A
:1026B000704741EA0203A0F8483070471AB1838995
:1026C0000B43838102E083898B438381704721B16F
:1026D000828842F00802828004E082884FF6F77315
:1026E0001A408280704701894FF6F87211400181CB
:1026F00070470A46002101894FF68F731940114334
:102700000181704730B504460D4629462046FFF743
:10271000F0FF208940F00700208130BD2DE9F04115
:1027200004460D4616461F46602D06D13B46012243
:1027300031462046FFF775FE05E03B460122314653
:102740002046FFF7A4FE29462046FFF7D2FF208946
:1027500040F007002081BDE8F08130B50C46002133
:102760000189C9B24FF6FF7505EA032515432543D4
:102770002943018130BD2DE9F04105460E4617463B
:102780009846002443463A4631462846FFF7E5FF7F
:102790002C894FF6F870044044F007044FF68F7010
:1027A000044044F070042C81BDE8F081F0B504468B
:1027B0000D4616461F463B46324629462046FFF741
:1027C000CCFF208940F480402081F0BD82884FF604
:1027D0008F731A40828082880A4382807047028900
:1027E0004FF6F8731A40028102890A43028170474A
:1027F00002894FF67F731A40028102890A430281DF
:102800007047F0B50C4615461E46002100220023F5
:102810000189028B038C4FF6F877394021434FF63C
:10282000FC473A4040F201173A434FF6DD773B4010
:102830004FF6FF7707EA06172F433B4301810283D8
:102840000384F0BD21B1828842F08002828004E0DE
:1028500082884FF67F731A4082807047A0F850102C
:102860007047000010B50446FA48844208D101219F
:102870001020FFF700F900211020FFF7FCF857E0C7
:10288000F548844209D101214804FFF7E3F800210B
:102890004FF40030FFF7DEF84AE0F048844209D1F7
:1028A00001218804FFF7D6F800214FF48020FFF7BC
:1028B000D1F83DE0EA48844209D10121C804FFF77C
:1028C000C9F800214FF40020FFF7C4F830E0E548D4
:1028D000844209D101210805FFF7BCF800214FF41B
:1028E0008010FFF7B7F823E0DF48844208D10121C8
:1028F0002020FFF7C0F800212020FFF7BCF817E0E8
:10290000DA48844209D101218807FFF7A3F80021A2
:102910004FF08040FFF79EF80AE0D548844207D187
:1029200001214005FFF796F800216005FFF792F8B6
:1029300010BD2DE9FF4705460E460024A14600BF05
:10294000A046B08900B100BF2C8A24F44054F0881E
:1029500004432C82AC8941F20C608443B0883189F5
:102960000843718908430443AC81AC8A24F4407461
:10297000B0890443AC826846FEF7FDFEB548854247
:1029800002D0B948854202D1DDF80C9001E0DDF8B3
:102990000890A88900F4004040B109EBC90000EBA1
:1029A000091031684900B0FBF1F707E009EBC900F5
:1029B00000EB091031688900B0FBF1F76420B7FB28
:1029C000F0F004012009642101FB1078A88900F4CB
:1029D000004040B1322000EBC800B0FBF1F000F045
:1029E0000700044308E0322000EB08106421B0FB2C
:1029F000F1F000F00F0004432C81BDE8FF874FF495
:102A00001651016000218180C18001810C2141812A
:102A100000218181704710B502460020108A20F401
:102A200070600B884C8823438C882343CC882343D5
:102A30001843108210BD0021018041808180C18037
:102A4000704721B1828942F40052828104E0828978
:102A50004DF6FF731A4082817047028B02F47F4269
:102A60000283028B0A430283704721B1828942F4B8
:102A70000042828103E08289C2F30E0282817047A4
:102A800021B1828A42F40062828204E0828A4FF29B
:102A9000FF731A4082827047C1F308028280704738
:102AA00001468888C0F308007047028A4FF6F07329
:102AB0001A400282028A0A430282704721B1828947
:102AC00042F00202828104E082894FF6FD731A40CF
:102AD0008281704782894FF2FF731A408281828916
:102AE0000A4382817047028A4FF6DF731A400282DE
:102AF000028A0A430282704721B1028A42F480426C
:102B0000028204E0028A4BF6FF731A400282704789
:102B1000818941F001018181704721B1828A42F0AF
:102B20000802828204E0828A4FF6F7731A4082829A
:102B30007047028BD2B20283028B42EA01220283E7
:102B4000704721B1828A42F02002828204E0828AA8
:102B50004FF6DF731A408282704721B1828A42F0B9
:102B60001002828204E0828A4FF6EF731A4082825A
:102B70007047828A4FF6FB731A408282828A0A4328
:102B80008282704721B1828A42F00202828204E08E
:102B9000828A4FF6FD731A40828270471AB1838A87
:102BA0000B43838202E0838A8B4383827047F0B5B4
:102BB0000346002400260025002040F66A17B9428B
:102BC00000D100BF1846C1F3421401F01F060127CF
:102BD00007FA06F5012C01D10C3004E0022C01D1DA
:102BE000103000E014301AB107682F43076002E08C
:102BF0000768AF430760F0BD02460020B1F5007FD3
:102C000000D100BF13880B400BB1012000E0002071
:102C1000704701F40072B2F5007F00D100BFCA43D3
:102C20000280704770B50246002400230025002072
:102C300040F66A16B14200D100BFC1F3421501F05F
:102C40001F03012606FA03F3012D13D196893340A1
:102C500017E0000000100140004400400048004020
:102C6000004C00400050004000140140007800403B
:102C7000007C0040022D02D1168A334001E0968A82
:102C800033400C12012606FA04F41688344013B1BE
:102C90000CB1012000E0002070BD10B5002200231F
:102CA00040F66A14A14200D100BF0A1201249440E8
:102CB000A3B2DC43048010BD704770477047704773
:102CC0007047754600F028F8AE4605006946534641
:102CD00020F00700854618B020B5FDF793FFBDE84A
:102CE00020404FF000064FF000074FF000084FF073
:102CF000000B21F00701AC46ACE8C009ACE8C00904
:102D0000ACE8C009ACE8C0098D4670470446AFF393
:102D100000802046FDF781FA004870472800002017
:102D20004FF04070E1EE100A704700000000000014
:102D30000000000000000000040404040404000477
:102D4000000000140A0A000000000000000000005B
:102D500014143F140A3F0A0A000000041E15050659
:102D60000C14150F0400000012150D0A142C2A1261
:102D700000000000040A0A1E1515093600000002B2
:102D800002010000000000000000002010080808F8
:102D900008080810200000020408080808080804B1
:102DA000020000000004150E0E15040000000000D3
:102DB0000404041F040404000000000000000000DC
:102DC00000000002020100000000001F00000000DF
:102DD00000000000000000000000000200000010E1
:102DE0000808080404020202010000000E1111117B
:102DF0001111110E00000000040604040404040E66
:102E0000000000000E1111080402011F0000000064
:102E10000E11100C1010110E00000000080C0A0A10
:102E2000091E0818000000001F01010F1010110EEC
:102E3000000000000E09010F1111110E000000002A
:102E40001F09080404040404000000000E11110E00
:102E50001111110E000000000E1111111E10120EA2
:102E6000000000000000040000000004000000005A
:102E70000000000400000004040000201008040208
:102E8000040810200000000000001F00001F0000C8
:102E900000000002040810201008040200000000D6
:102EA0000E11110804040004000000000E11191591
:102EB000151D011E0000000004040C0A0A1E123336
:102EC000000000000F12120E1212120F000000007C
:102ED0001E1101010101110E000000000F1212125B
:102EE0001212120F000000001F120A0E0A02121F17
:102EF000000000001F120A0E0A0202070000000074
:102F00001C1201013911120C000000003312121EB4
:102F100012121233000000001F0404040404041FF2
:102F2000000000003E080808080808090700000023
:102F300037120A060A0A12370000000007020202CE
:102F40000202223F000000001B1B1B1B151515155C
:102F5000000000003B1216161A1A1217000000009B
:102F60000E1111111111110E000000000F12120E9E
:102F700002020207000000000E1111111117190EB4
:102F8000180000000F12120E0A1212370000000083
:102F90001E1101060810110F000000001F15040487
:102FA0000404040E00000000331212121212120C5C
:102FB000000000003312120A0A0C04040000000092
:102FC0001515150E0A0A0A0A000000001B0A0A0459
:102FD000040A0A1B000000001B0A0A040404040E71
:102FE000000000001F0908040402121F0000001C5A
:102FF00004040404040404041C0000020202040487
:10300000080808100000000E08080808080808084A
:103010000E0000040A000000000000000000000094
:103020000000000000000000003F0004000000005D
:1030300000000000000000000000000C121C123C08
:10304000000000000302020E1212120E0000000027
:103050000000001C1202021C000000001810101CCE
:103060001212123C000000000000000C121E021C94
:10307000000000003804041E0404041E00000000C8
:103080000000003C120C021E221C00000302020E73
:103090001212123700000000040000060404040E9F
:1030A000000000000800000C0808080808070000DD
:1030B0000302023A0A0E123700000000070404045B
:1030C0000404041F000000000000000F1515151572
:1030D000000000000000000F121212370000000074
:1030E0000000000C1212120C000000000000000F83
:1030F0001212120E020700000000001C1212121C15
:10310000103800000000001B06020207000000004B
:103110000000001E020C101E000000000004040E3F
:1031200004040418000000000000001B1212123CEE
:103130000000000000000037120A0C04000000002C
:1031400000000015150E0A0A000000000000001B18
:103150000A040A1B0000000000000037120A0C04D9
:10316000040300000000001E0804041E00000018F4
:1031700008080804080808081800080808080808CB
:1031800008080808080800060404040804040404E5
:1031900006000225180000000000000000000000EA
:1031A000000000000000000000000000000000001F
:1031B000000808080808080800001818000000485F
:1031C0006C2412000000000000000000000000005D
:1031D000002424247F1212127F1212120000000019
:1031E000081C2A2A0A0C1828282A2A1C0808000069
:1031F0000022251515152A585454542200000000A9
:10320000000C1212120A76252911916E0000000698
:103210000604030000000000000000000000004061
:1032200020101008080808080810102040000002AC
:103230000408081010101010100808040200000004
:10324000000008086B1C1C6B080800000000000050
:103250000000080808087F080808080000000000AF
:10326000000000000000000000000606040300004B
:10327000000000000000FE00000000000000000050
:103280000000000000000000000006060000000032
:1032900080404020201010080804040202000000B2
:1032A00000182442424242424242241800000000D8
:1032B00000080E08080808080808083E000000007A
:1032C000003C4242422020100804427E00000000E0
:1032D000003C4242201820404042221C00000000D6
:1032E00000203028242422227E20207800000000A4
:1032F000007E0202021A26404042221C000000000A
:1033000000382402021A264242422418000000001B
:10331000007E22221010080808080808000000009B
:10332000003C4242422418244242423C0000000039
:1033300000182442424264584040241C000000000F
:10334000000000001818000000001818000000001D
:103350000000000000080000000000080804000051
:103360000040201008040204081020400000000063
:10337000000000007F0000007F000000000000004F
:103380000002040810204020100804020000000081
:10339000003C424246402010100018180000000077
:1033A000001C225A555555552D42221C0000000084
:1033B000000808181414243C224242E700000000D0
:1033C000001F2222221E22424242221F0000000031
:1033D000007C4242010101010142221C0000000068
:1033E000001F2242424242424242221F000000008D
:1033F000003F4212121E12120242423F0000000021
:10340000003F4212121E12120202020700000000C8
:10341000003C2222010101712122221C0000000037
:1034200000E7424242427E42424242E70000000040
:10343000003E0808080808080808083E00000000C8
:10344000007C10101010101010101010110F000040
:10345000007722120A0E0A121222227700000000C0
:1034600000070202020202020202427F0000000084
:103470000077363636362A2A2A2A2A6B00000000C0
:1034800000E346464A4A5252526262470000000038
:10349000001C2241414141414141221C00000000E9
:1034A000003F424242423E02020202070000000088
:1034B000001C2241414141414D53321C600000003B
:1034C000003F4242423E1212222242C70000000048
:1034D000007C4242020418204042423E00000000AC
:1034E000007F4908080808080808081C00000000B8
:1034F00000E74242424242424242423C0000000057
:1035000000E7424222242414141808080000000096
:10351000006B4949494955553622222200000000D6
:1035200000E7422424181818242442E70000000071
:1035300000772222141408080808081C0000000064
:10354000007E2120101008040442423F0000007851
:103550000808080808080808080808087800000093
:103560000202040408080810102020204040001E19
:103570001010101010101010101010101E00003835
:1035800044000000000000000000000000000000F7
:1035900000000000000000000000000000FF000626
:1035A0000800000000000000000000000000000013
:1035B00000000000003C4278444242FC0000000051
:1035C00000030202021A26424242261A00000000AC
:1035D00000000000003844020202443800000000ED
:1035E0000060404040784442424264D800000000FD
:1035F00000000000003C427E0202423C000000004D
:1036000000F08808087E08080808083E000000004E
:1036100000000000007C22221C023C42423C0000D0
:1036200000030202023A4642424242E70000000022
:10363000000C0C00000E08080808083E00000000FE
:10364000003030000038202020202020221E0000E2
:10365000000302020272120A161222770000000012
:10366000000E0808080808080808083E00000000C6
:1036700000000000007F9292929292B7000000003A
:1036800000000000003B4642424242E700000000CA
:1036900000000000003C42424242423C0000000068
:1036A00000000000001B26424242221E02070000CA
:1036B00000000000007844424242447840E00000AC
:1036C0000000000000774C040404041F0000000008
:1036D00000000000007C42023C40423E000000002E
:1036E00000000008083E0808080808300000000034
:1036F0000000000000634242424262DC0000000021
:103700000000000000E74224241408080000000024
:103710000000000000EB494955552222000000003E
:1037200000000000007624181818246E0000000025
:103730000000000000E742242414180808070000D5
:1037400000000000007E22100808447E000000C037
:10375000202020202010202020202020C000101019
:103760001010101010101010101010101010000673
:1037700008080808081008080808080806000C329D
:10378000C200000000000000000000000000000077
:103790000F0000000F000000FF0000000F000000FD
:1037A0000F0000000F00000000000000CC370008F0
:1037B0000000002028000000C4010008F4370008C1
:1037C0002800002060060000E0010008007A030ADB
:1037D00000000000000000000102030406070809C1
:1037E0000000FFFF000000000102030401020304C7
:0437F00006070809B7
:040000050800018965
:00000001FF
